:10000000D2B575890111DD113220B50811F21173D5
:10001000C2A0800611F211A8D2A0111E80E7780FAD
:10002000758C00758A00D28C308DFDC28CC28DD843
:10003000EF22744D3104746F3104746931047473A8
:10004000310474743104747531047472310474654C
:1000500031047420310474433104746F3104746EBC
:1000600031047474310474723104746F3104746C2B
:10007000310422745B3104744F3104744B310474C5
:100080005D3104742031047450310474753104748A
:100090006D31047470310474203104744F31047470
:1000A0004631047446310422745B3104744C3104CB
:1000B000746F310474773104745D31047420310439
:1000C0007450310474753104746D310474703104EA
:1000D00074203104744F3104744E310422740C11B5
:1000E000F7740111F7740611F7748011F7743C115D
:1000F000F72274C011F722F580C2A7C2A6D2A5C20A
:10010000A5311122F580D2A7C2A6D2A5C2A5311170
:1001100022C2A5C2A7D2A67580FFD2A5E58020E79E
:06012000F0C2A5C2A622F8
:00000001FF
